:100000000C9434000C9446000C9446000C9446006A
:100010000C9446000C9446000C9446000C94460048
:100020000C9446000C9446000C9446000C94480036
:100030000C9446000C9446000C9446000C94460028
:100040000C9446000C9446000C9446000C94460018
:100050000C9446000C9446000C9446000C94460008
:100060000C9446000C94460011241FBECFEFD8E03C
:10007000DEBFCDBF21E0A0E0B1E001C01D92A630FF
:10008000B207E1F70E94AE000C94B4000C9400009B
:100090001F921FB61F9211242F933F938F939F930C
:1000A0008091020190910301019690930301809346
:1000B000020120910401309105012F5F3F4F3093E1
:1000C00005012093040120910001309101012F5F6F
:1000D0003F4F3093010120930001883C910540F08F
:1000E00085B190E2892785B910920301109202012F
:1000F0008091000190910101843F914040F085B1D1
:1001000090E1892785B91092010110920001809138
:10011000040190910501883E934040F085B198E03C
:10012000892785B910920501109204019F918F9142
:100130003F912F911F901FBE1F9018951092800025
:100140008BE08093810089EF90E090938900809309
:10015000880082E080936F0078940895259A249A0D
:0C016000239A0E949E00FFCFF894FFCF6E
:00000001FF
