:100000000C9434000C9446000C9446000C9446006A
:100010000C9446000C9446000C9446000C94460048
:100020000C9446000C9446000C9446000C94480036
:100030000C9446000C9446000C9446000C94460028
:100040000C9446000C9446000C9446000C94460018
:100050000C9446000C9446000C9446000C94460008
:100060000C9446000C94460011241FBECFEFD8E03C
:10007000DEBFCDBF21E0A0E0B1E001C01D92A23003
:10008000B207E1F70E947A000C947E000C94000005
:100090001F921FB61F9211242F938F939F938091CD
:1000A000000190910101019690930101809300015C
:1000B000843F914040F085B190E2892785B9109244
:1000C0000101109200019F918F912F911F901FBEEF
:1000D0001F901895109280008BE08093810089EF2B
:1000E00090E0909389008093880082E080936F0075
:1000F00078940895259A0E946A00FFCFF894FFCF64
:00000001FF
