:100000000C9434000C9446000C9446000C9446006A
:100010000C9446000C9446000C9446000C94460048
:100020000C9446000C9446000C9446000C94480036
:100030000C9446000C9446000C9446000C94460028
:100040000C9446000C9446000C9446000C94460018
:100050000C9446000C9446000C9446000C94460008
:100060000C9446000C94460011241FBECFEFD8E03C
:10007000DEBFCDBF21E0A0E0B1E001C01D92A43001
:10008000B207E1F70E949C000C94AA000C940000B7
:100090001F921FB61F9211248F939F93AF93BF930C
:1000A0008091000190910101A0910201B0910301A2
:1000B0000196A11DB11D8093000190930101A093B1
:1000C0000201B0930301BF91AF919F918F911F9057
:1000D0001FBE1F901895109280008BE080938100C6
:1000E00089EF90E0909389008093880082E080936C
:1000F0006F00789408950F931F93462F572FBC01DC
:100100000091000110910101209102013091030141
:100110008091000190910101A0910201B091030131
:10012000801B910BA20BB30B84179507A607B7078B
:1001300078F31F910F910895259A0E946B00C0E2F9
:1001400085B18C2785B964EF71E080E090E00E9472
:080150007B00F6CFF894FFCF0D
:00000001FF
