:100000000C9434000C943E000C943E000C943E0082
:100010000C943E000C943E000C943E000C943E0068
:100020000C943E000C943E000C943E000C943E0058
:100030000C943E000C943E000C943E000C943E0048
:100040000C943E000C943E000C943E000C943E0038
:100050000C943E000C943E000C943E000C943E0028
:100060000C943E000C943E0011241FBECFEFD8E04C
:10007000DEBFCDBF0E9440000C9450000C940000E5
:10008000259A52985A9A80E090E04A9902C021E05D
:1000900082278130910511F42D9AF7CF2D98F5CF55
:0400A000F894FFCF02
:00000001FF
