:100000000C9434000C943E000C943E000C943E0082
:100010000C943E000C943E000C943E000C943E0068
:100020000C943E000C943E000C943E000C943E0058
:100030000C943E000C943E000C943E000C943E0048
:100040000C943E000C943E000C943E000C943E0038
:100050000C943E000C943E000C943E000C943E0028
:100060000C943E000C943E0011241FBECFEFD8E04C
:10007000DEBFCDBF0E9440000C9480000C940000B5
:10008000259A249A239A2D9A2FEF89E698E12150F8
:1000900080409040E1F700C000002D982FEF83EDE5
:1000A00090E3215080409040E1F700C000002C9A7E
:1000B0002FEF89E698E1215080409040E1F700C0A1
:1000C00000002C982FEF83ED90E32150804090406A
:1000D000E1F700C000002B9A2FEF89E698E121504C
:1000E00080409040E1F700C000002B982FEF83ED97
:1000F00090E3215080409040E1F700C00000C3CF62
:04010000F894FFCFA1
:00000001FF
